:100000000C9463000C948B000C948B000C9496065B
:100010000C9496060C9496060C948B000C948B0012
:100020000C948B000C948B000C948B000C948B0024
:100030000C948B000C948B000C948B000C948B0014
:100040000C944C060C948B000C941A060C94F4053A
:100050000C948B000C948B000C948B000C948B00F4
:100060000C940E070C948B00000000002400270065
:100070002A0000000008000201000003040700003D
:1000800000000000000000000000230026002900FE
:1000900000000000250028002B00040404040404D0
:1000A0000404020202020202030303030303010227
:1000B00004081020408001020408102001020408F6
:1000C00010206E088B0C11241FBECFEFD8E0DEBFCE
:1000D000CDBF12E0A0E0B1E0E8E2FEE102C0059091
:1000E0000D92AC33B107D9F723E0ACE3B2E001C025
:1000F0001D92A43DB207E1F710E0C2E6D0E004C0D3
:100100002197FE010E94010FC136D107C9F70E9455
:1001100050090C94070F0C940000AF92BF92CF923D
:10012000DF92EF92FF920F931F93CF93DF936C01B7
:100130007B018B01040F151FEB015E01AE18BF0898
:10014000C017D10759F06991D601ED91FC9101904A
:10015000F081E02DC6010995892B79F7C501DF9162
:10016000CF911F910F91FF90EF90DF90CF90BF90B4
:10017000AF900895FC01538D448D252F30E0842FDE
:1001800090E0821B930B541710F0CF9608950197BF
:100190000895FC01918D828D981761F0A28DAE0FAC
:1001A000BF2FB11D5D968C91928D9F5F9F73928F33
:1001B00090E008958FEF9FEF0895FC01918D828D5F
:1001C000981731F0828DE80FF11D858D90E008952C
:1001D0008FEF9FEF0895FC01918D228D892F90E084
:1001E000805C9F4F821B91098F739927089580E04F
:1001F00093E00E94EB0021E0892B09F420E0822F9C
:10020000089580E090E0892B29F00E94F700811189
:100210000C9400000895FC01A48DA80FB92FB11D06
:10022000A35ABF4F2C91848D90E001968F7399272C
:10023000848FA689B7892C93A089B1898C9183700A
:1002400080648C93938D848D981306C00288F38903
:10025000E02D80818F7D80830895EF92FF920F9330
:100260001F93CF93DF93EC0181E0888F9B8D8C8D62
:1002700098131AC0E889F989808185FF15C09FB756
:10028000F894EE89FF896083E889F9898081837019
:10029000806480839FBF81E090E0DF91CF911F91C8
:1002A0000F91FF90EF900895F62E0B8D10E00F5FE9
:1002B0001F4F0F731127E02E8C8D8E110CC00FB6BF
:1002C00007FCFACFE889F989808185FFF5CFCE0157
:1002D0000E940B01F1CFEB8DEC0FFD2FF11DE35AC6
:1002E000FF4FF0829FB7F8940B8FEA89FB898081DA
:1002F0008062CFCFCF93DF93EC01888D8823B9F054
:10030000AA89BB89E889F9898C9185FD03C0808120
:1003100086FD0DC00FB607FCF7CF8C9185FFF2CF9D
:10032000808185FFEDCFCE010E940B01E9CFDF91E7
:10033000CF91089590E0FC01EE58FF4F2491FC010D
:10034000E255FF4F3491FC01E656FF4FE491EE2356
:10035000C9F0222339F0233001F1A8F4213019F13A
:10036000223029F1F0E0EE0FFF1FE057FF4FA5917B
:10037000B4918FB7F894EC91611126C030953E236B
:100380003C938FBF08952730A9F02830C9F024305E
:1003900049F7809180008F7D03C0809180008F7726
:1003A00080938000DFCF84B58F7784BDDBCF84B5A9
:1003B0008F7DFBCF8091B0008F778093B000D2CF3C
:1003C0008091B0008F7DF9CF3E2BDACFCF93DF93B2
:1003D00090E0FC01E255FF4F249186569F4FFC01AF
:1003E00084918823D1F090E0880F991FFC01E8598F
:1003F000FF4FA591B491FC01E057FF4FC591D491F7
:1004000061110EC09FB7F8948C91E22FE0958E2376
:100410008C932881E223E8839FBFDF91CF910895D9
:100420008FB7F894EC91E22BEC938FBFF6CF8E3020
:1004300008F08E508770806480937C0080917A00F1
:10044000806480937A0080917A0086FDFCCF809151
:1004500078009091790008953FB7F8948091F20266
:100460009091F302A091F402B091F50226B5A89BF9
:1004700005C02F3F19F00196A11DB11D3FBFBA2F36
:10048000A92F982F8827BC01CD01620F711D811DF6
:10049000911D42E0660F771F881F991F4A95D1F77B
:1004A00008958F929F92AF92BF92CF92DF92EF9278
:1004B000FF926B017C010E942C024B015C01C11474
:1004C000D104E104F104B9F00E942C026819790901
:1004D0008A099B09683E73408105910580F321E0FC
:1004E000C21AD108E108F10888EE880E83E0981E50
:1004F000A11CB11CE4CFFF90EF90DF90CF90BF9094
:10050000AF909F908F9008952091F8023091F9025A
:100510002817390771F49091F6028091F702981725
:1005200041F0E091F602F0E0E355FD4F808190E06C
:1005300008958FEF9FEF08950895EF92FF920F9324
:100540001F93CF93DF93DC015C96ED90FC905D9759
:10055000E114F10479F481E090E013969C938E937A
:10056000129790E080E0DF91CF911F910F91FF9063
:10057000EF9008955196ED91FC91529750968C9181
:100580005097982F90950FB75E962C915E97122FEB
:10059000127021FD6095F8942081112319F1282B08
:1005A0002083E7012197F1F728E0462F50E03081C2
:1005B00060FF1AC0382B3083E7012197F1F7BA01A9
:1005C00075956795215089F7112381F080818923E2
:1005D00080830FBF5C968D919C910197F1F781E02C
:1005E00090E0C1CF2923DCCF3923E5CF9081892B3F
:1005F000EFCF2091F8023091F9022817390771F4F2
:100600008091F7022091F60290E0805C9F4F821B60
:10061000910960E470E00E94B70E089590E080E0D8
:1006200008952091F8023091F90228173907B9F49A
:100630009091F6028091F702981789F0E091F60206
:10064000F0E0E355FD4F80812091F60230E02F5F0E
:100650003F4F2F7333272093F60290E008958FEFDA
:100660009FEF0895089520916302260F3327331FCB
:1006700021323105ECF420918702FC0190E080E00A
:10068000243069F082E00895A09163022191AC01C9
:100690004D5B5D4FA40FB52FB11D2C9301968617AE
:1006A00098F380916302680F6093630280E008957D
:1006B00081E008958FEF9FEF08958FEF9FEF0895EA
:1006C00080913C0290E09195819591090895CF9396
:1006D000DF93CB01EA01642F0E943303CE01DF9147
:1006E000CF910895CF93DF931F92CDB7DEB7698383
:1006F00061E0CE0101960E94330381E090E00F900B
:10070000DF91CF91089590E080E00895CF93DF933B
:10071000EC0160E08E810E949A0161E08E810E946E
:100720009A0160E08E810E949A018BE891E0019726
:10073000F1F7DF91CF910895CF92DF92EF92FF9280
:100740000F931F93CF93DF936C017C0187E0E80E3A
:10075000F11CD0E0C0E0062F10E0B8010C2E02C062
:10076000759567950A94E2F76170F70181917F01B1
:100770000E949A012196C430D10579F7C601DF9114
:10078000CF911F910F91FF90EF90DF90CF900C943D
:100790008603CF92DF92EF92FF920F931F93CF9336
:1007A000DF93EC01F62E642F8C810E949A018D81DB
:1007B0008F3F19F060E00E949A010F2D10E08F85A5
:1007C00084FF25C06E0187E0C80ED11CF12CE12CFE
:1007D000B8010E2C02C0759567950A94E2F7617016
:1007E000F60181916F010E949A01FFEFEF1AFF0A53
:1007F00088E0E816F10461F7CE01DF91CF911F91F7
:100800000F91FF90EF90DF90CF900C948603B8018A
:1008100084E0759567958A95E1F7CE010E949C0367
:100820006F2DCE01DF91CF911F910F91FF90EF902F
:10083000DF90CF900C949C0340E0682F8CEB93E00A
:100840000C94C90381E00E941C048BE39FE1019793
:10085000F1F70895CF93DF93613029F09091CB03A6
:1008600098609093CB036093CF031092D00390E4F1
:100870009093D1038093D203805C8093D30361E093
:100880008091C0030E94E6018091C1038F3F19F05F
:1008900061E00E94E60161E08091C2030E94E601EE
:1008A000CCEBD3E09E012C5B33408091CB0384FDE5
:1008B0000BC084E090E021962817390744F461E0EA
:1008C0008E810E94E601EECF88E090E0F4CF8BE3CA
:1008D0009DE00197F1F760E08091C0030E949A01CA
:1008E00060E08091C2030E949A018091C1038F3F12
:1008F00019F060E00E949A018091CB0384FD34C01E
:1009000063E08CEB93E00E949C03CBE4D6E4CE0141
:100910000197F1F763E08CEB93E00E949C03219731
:10092000F1F763E08CEB93E00E949C0383E592E097
:100930000197F1F762E08CEB93E00E949C038091B9
:10094000CB0380620E941C0484E08093CC038CE083
:100950000E941C040E94220482E08093CD0386E062
:10096000DF91CF910C941C0480620E941C048BE4E4
:1009700096E40197F1F78091CB0380620E941C04FA
:1009800083E592E00197F1F78091CB0380620E94AA
:100990001C04D5CF9091CF03691710F06FEF690F4A
:1009A000E62FF0E0E454FC4F9489890F80680C94A2
:1009B0001C0441E00E94C90381E090E00895FB011E
:1009C00001900020E9F73197AF01461B570BDC017E
:1009D000ED91FC910280F381E02D09948F929F921A
:1009E000AF92BF920F931F93CF93DF93CDB7DEB734
:1009F000A1970FB6F894DEBF0FBECDBF19A242304B
:100A000008F44AE08E010F5D1F4F842E912CB12C0B
:100A1000A12CA50194010E94CB0EE62FB901CA01B9
:100A2000EA3004F5E05DD801EE938D01232B242BF1
:100A3000252B79F790E080E0109729F0BD018CEB31
:100A400093E00E94DF04A1960FB6F894DEBF0FBEBC
:100A5000CDBFDF91CF911F910F91BF90AF909F902D
:100A60008F900895E95CDFCFCF92DF92EF92FF92F3
:100A70006B017C0141E06DE28CEB93E00E94C903C5
:100A800066277727CB016C197D098E099F094AE0FB
:100A90000E94EE040196FF90EF90DF90CF900895B2
:100AA00060E371E00C94DF040F931F93CF93DF9307
:100AB000EC01E881F9810190F081E02D6AE109956E
:100AC0008C01CE010E945005800F911FDF91CF91C4
:100AD0001F910F9108950F931F93CF93DF93EC0114
:100AE0000E94DF048C01CE010E945005800F911FEF
:100AF000DF91CF911F910F9108950C94DF041F9304
:100B0000CF93DF9385ED8093BC0080913F0290915D
:100B10004002A0914102B09142020796A11DB11D71
:100B200023E0B695A795979587952A95D1F72091BB
:100B3000BC0024FD03C01092870252C040913F02C6
:100B4000509140026091410270914202452B462B28
:100B5000472B69F30097A105B10541F025E32A95DC
:100B6000F1F700000197A109B109E1CF80913E02A0
:100B7000C1E0C0933D02882399F1D091B800109153
:100B8000BA008091BC008A7B8093BC0060E082E167
:100B90000E949A0160E083E10E949A01109287020C
:100BA000C09389021092880261E082E10E949A015A
:100BB00061E083E10E949A018091B9008E7F809369
:100BC000B9008091B9008D7F8093B90088E480934B
:100BD000B80085E48093BC001093BA00D093B800AD
:100BE000DF91CF911F9108951F920F920FB60F9230
:100BF00011242F933F934F935F936F937F938F9322
:100C00009F93AF93BF93EF93FF9380E093E00E9495
:100C10000B01FF91EF91BF91AF919F918F917F91C8
:100C20006F915F914F913F912F910F900FBE0F9059
:100C30001F9018951F920F920FB60F9211242F93A9
:100C40008F939F93EF93FF93E0911003F091110323
:100C50008081E0911603F091170382FD1BC0908103
:100C6000809119038F5F8F7320911A03821741F0CF
:100C7000E0911903F0E0E050FD4F958F8093190348
:100C8000FF91EF919F918F912F910F900FBE0F9039
:100C90001F9018958081F4CF1F920F920FB60F927C
:100CA00011242F933F938F939F93AF93BF93809182
:100CB000EE029091EF02A091F002B091F10230911A
:100CC000ED0223E0230F2D3758F50196A11DB11D2C
:100CD0002093ED028093EE029093EF02A093F00236
:100CE000B093F1028091F2029091F302A091F4028C
:100CF000B091F5020196A11DB11D8093F20290936F
:100D0000F302A093F402B093F502BF91AF919F91CB
:100D10008F913F912F910F900FBE0F901F901895BC
:100D200026E8230F0296A11DB11DD2CF1F920F926C
:100D30000FB60F9211242F933F934F935F936F93AE
:100D40007F938F939F93AF93BF93EF93FF93E09124
:100D5000F802F091F902309749F0A685B7858585AC
:100D6000968D91FF14C09C918923A1F4FF91EF917E
:100D7000BF91AF919F918F917F916F915F914F91B3
:100D80003F912F910F900FBE0F901F9018959C913F
:100D9000892361F7A389B4899C91858980958923EA
:100DA0008C93868997890197F1F7608D718DA6855F
:100DB000B785558538E020E0CB010197F1F7822F08
:100DC00090E095958795282F4C91452309F0206850
:100DD000315091F7868D81FD20958091F70290E04A
:100DE00001968F7399273091F602381799F0A091E8
:100DF000F702B0E0A355BD4F2C938093F702828D8C
:100E0000938D0197F1F7A389B4898C919589892BEA
:100E10008C93ACCF868D8160868FF1CF1F920F921D
:100E20000FB60F9211242F933F934F935F936F93BD
:100E30007F938F939F93AF93BF93EF93FF93809193
:100E4000B900887F803609F44AC0F0F5883209F489
:100E5000A5C018F5803109F499C0B8F4882309F4C5
:100E6000F5C0883009F492C0FF91EF91BF91AF9126
:100E70009F918F917F916F915F914F913F912F91B2
:100E80000F900FBE0F901F901895883109F486C0FF
:100E9000803251F78093860214C0803409F49BC0DD
:100EA00040F48033B9F38833F9F68093860285ECF9
:100EB000AEC0803509F483C0883509F494C0883405
:100EC00099F60E947F05D0CF883909F48AC038F599
:100ED000883729F050F4883611F0803729F683E0FE
:100EE000809387021092850255C0883809F479C032
:100EF000803919F0803809F0B7CF809185028032AF
:100F000008F06FC0E091850281E08E0F809385022A
:100F10008091BB00F0E0EB59FD4F80833BC0803BEC
:100F200039F0D0F4803A09F477C0883A09F09CCFC0
:100F300084E0809387021092640210926302F0E0D2
:100F4000E0E009958091630281110FC081E08093F8
:100F500063021092430209C0803C09F4A8CF883C88
:100F600009F4A5CF883B09F07FCFE091640281E0CE
:100F70008E0F80936402F0E0ED5BFD4F80818093E3
:100F8000BB00909164028091630229C08091AC0201
:100F90008093BB0085EC8093BC0066CF9091AB0240
:100FA0008091AA02981758F5E091AB0281E08E0F6C
:100FB0008093AB02F0E0E657FD4F8081E9CFE091EE
:100FC000AB0281E08E0F8093AB028091BB00F0E01A
:100FD000E657FD4F80839091AB028091AA0298174B
:100FE000C8F285E8D8CFE091AB0281E08E0F809304
:100FF000AB028091BB00F0E0E657FD4F808380910B
:10100000890281115ECF81E08093880284EA809317
:10101000BC001092870228CF85EC8093BC00109210
:10102000870280918502803230F4E0918502F0E001
:10103000EB59FD4F10826091850270E085E692E0E9
:10104000F0E0E0E00995109285020ECF1092860242
:1010500038CFCF92DF92EF92FF920F931F93E82F3A
:10106000F92F05C0015011092109310961F1908161
:1010700096239417B9F305C00150110921093109CC
:1010800011F1908196239413F7CFC12CD12CE12C30
:10109000F12C0AC08FEFC81AD80AE80AF80A0C1512
:1010A0001D052E053F0579F080818623841791F375
:1010B0006C2D7D2D8E2D9F2D1F910F91FF90EF9008
:1010C000DF90CF90089560E070E080E090E01F91A5
:1010D0000F91FF90EF90DF90CF900895CF92DF9225
:1010E000EF92FF92109203031092020398EEC92E22
:1010F00093E0D92EE12CF12CC0920403D092050389
:10110000E0920603F092070384E091E090930103DC
:101110008093000385EC90E090930D0380930C0383
:1011200084EC90E090930F0380930E0380EC90E0AA
:10113000909311038093100381EC90E0909313033C
:101140008093120382EC90E0909315038093140334
:1011500086EC90E090931703809316031092190386
:1011600010921A0310921B0310921C031092BF03DB
:101170001092BE0388E291E09093BD038093BC037C
:101180008CE08093C0038FEF8093C1038BE080934A
:10119000C20385E08093C30384E08093C40383E0AB
:1011A0008093C50382E08093C6031092C703109218
:1011B000C8031092C9031092CA031092CB0361E0D6
:1011C00080E10E942A041092A00310929F03C09213
:1011D000A103D092A203E092A303F092A40386E1BC
:1011E00091E090939E0380939D031092B40310921C
:1011F000B3031092B6031092B5031092B803109285
:10120000B7031092BA031092B9036091BB036E7FCB
:101210006D7F6093BB036695617081E068278AE00B
:101220000E949A0161E08AE00E94E601E8EBF0E0AA
:10123000E491E093AD03E4EAF0E0E491F0E0EE0F36
:10124000FF1FE057FF4F859194919093AF038093D8
:10125000AE0360E089E00E94E6018091BB0381FD5E
:1012600004C061E089E00E949A0189E08093A903AB
:10127000E7EBF0E0E491E093AA03E3EAF0E0E49125
:10128000F0E0EE0FFF1FEA57FF4F85919491909386
:10129000AC038093AB03FF90EF90DF90CF90089565
:1012A000789484B5826084BD84B5816084BD85B541
:1012B000826085BD85B5816085BD80916E0081604D
:1012C00080936E00109281008091810082608093F3
:1012D00081008091810081608093810080918000F5
:1012E0008160809380008091B10084608093B10020
:1012F0008091B00081608093B00080917A0084601A
:1013000080937A0080917A00826080937A00809145
:101310007A00816080937A0080917A00806880935F
:101320007A001092C10060E08EE00E94E60161E068
:1013300088E00E94E60160E087E00E94E601E0911B
:101340001003F091110382E08083E0910C03F0918F
:101350000D031082E0910E03F0910F038FEC808358
:1013600010921803E0911403F091150386E0808336
:10137000E0911203F0911303808180618083E091FA
:101380001203F0911303808188608083E09112033F
:10139000F0911303808180688083E0911203F091C3
:1013A000130380818F7D80831092B8031092B7035E
:1013B0001092B6031092B5031092B4031092B303C7
:1013C0008DE991E09093BA038093B9039091A903BA
:1013D000963108F047C02DEB30E03093B4032093F2
:1013E000B3032BE931E03093B6032093B5032CE22D
:1013F00031E03093B8032093B7032091680084E074
:10140000983048F031E09E3008F430E081E001C0CF
:10141000880F3A95EAF7822B809368002DE630E03A
:10142000983050F02BE630E09E3030F02CE630E083
:10143000963110F030E020E03093B1032093B003F8
:10144000292F30E0983008F011C281E001C0880FE8
:101450009A95EAF78093B2038091B9039091BA0309
:101460000197F1F78091B7039091B803892B49F167
:10147000E091F802F091F90223E0ED39F20709F169
:10148000309739F0A389B4899C9185898095892307
:101490008C938091BB038E7F8093BB031092F702E5
:1014A0001092F6028DE993E09093F9028093F8028E
:1014B000E091B003F091B10380819091B203892B48
:1014C000808364E670E080E090E00E94510263E374
:1014D00071E080E093E00E946B0564E084E10E948B
:1014E0002A0462E571E08CEB93E00E947D0561E0E7
:1014F00082E00E94CA046FE571E08CEB93E00E94E9
:101500007D0561E089E00E94CA0467E471E08CEB2C
:1015100093E00E947D0562E084E00E94CA0466E6D2
:1015200071E08CEB93E00E947D056CEB72E080E053
:1015300090E00E9451020E942204C3E0D0E093E2B6
:10154000E92EF12C25EBC22E20E0D22E31EAA32E7B
:1015500030E0B32E40E0842E40E0942E8EE00E94D6
:101560001702BC01990F880B990B0E94BE0D20E059
:1015700030E04AEF53E40E944A0E20E030EC4FE79F
:1015800054E40E94140D0E94860D7093FF02609334
:10159000FE028FE00E941702BC01990F880B990B85
:1015A0000E94BE0D2AE038E240EA5BE30E944A0E48
:1015B00020E030E040E250E40E94A70C24EA30E74B
:1015C0004DE35EE30E94140D0E94860D7093FD02B0
:1015D0006093FC0260E088E00E949A01CE010197CE
:1015E000F1F761E088E00E949A01C7010197F1F7E5
:1015F00060E088E00E949A01F6016491F50184910F
:10160000E82FF0E0EE0FFF1FEA57FF4F859194910E
:1016100000E412E42FE030E0462F0E942908611513
:1016200071058105910529F06F5F7F4F8F4F9F4FA7
:101630009F700E94BE0D26E933E44BE05DE30E94FB
:101640004A0E20E030E040E05FE30E944A0E0E9434
:10165000860D7093FB026093FA0260E080E00E94C6
:10166000CA0462E771E08CEB93E00E947D0560E0C4
:101670008CE00E94CA046091FE027091FF02072E66
:10168000000C880B990B97FFFEC00E94340560E0A8
:101690008FE00E94CA046FE771E08CEB93E00E9438
:1016A0007D0561E080E00E94CA0461E871E08CEB96
:1016B00093E00E947D0561E08AE00E94CA04609187
:1016C000FA027091FB02072E000C880B990B97FF12
:1016D000DEC00E94340561E08EE00E94CA046CE81E
:1016E00071E08CEB93E00E947D0562E080E00E9457
:1016F000CA046FE871E08CEB93E00E947D0562E024
:101700008EE00E94CA046091FC027091FD02072ED7
:10171000000C880B990B42E00E94EE0462E080E12D
:101720000E94CA046EE971E08CEB93E00E947D0593
:1017300068E572E080E090E00E9451028091FE0234
:101740009091FF028C349105F4F10E94220460E034
:1017500080E00E94CA040E94220460EA71E08CEBDF
:1017600093E00E947D0561EB71E08DE993E00E94BA
:101770007D056CEB71E08DE993E00E946B056CEBED
:1017800071E080E093E00E946B0568ED71E08DE907
:1017900093E00E946B0568ED71E080E093E00E94A9
:1017A0006B058DE993E00E94540580E093E00E9470
:1017B00054058DE993E00E9450056CE271E080E0F1
:1017C00090E00E9451028091FA029091FB028132D6
:1017D000F3E09F070CF45FC00E94220461E081E007
:1017E0000E94CA040E94220465EF71E08CEB93E032
:1017F0000E947D0561EB71E08DE993E00E947D051B
:1018000063E072E08DE993E00E946B0563E072E0B3
:1018100080E093E00E946B0565EF71E08DE993E055
:101820000E946B0565EF71E080E093E00E946B051C
:101830008DE993E00E94540580E093E00E945405F6
:101840008DE993E00E94500568EE73E080E090E03F
:101850000E9451028114910409F480CE0E94F70085
:10186000882309F47BCE0E94000078CE9E3040F49D
:101870002850310981E001C0880F2A95EAF7EACDA6
:101880002E503109F7CF4AE00E94EE0400CF4AE023
:101890000E94EE0420CF8C329140E4F60E94220494
:1018A00062E080E00E94CA040E9422046FE172E0BC
:1018B0008CEB93E00E947D0561EB71E08DE993E094
:1018C0000E947D0563E072E08DE993E00E946B0564
:1018D00063E072E080E093E00E946B056DE272E0ED
:1018E0008DE993E00E946B056DE272E080E093E089
:1018F0000E946B058DE993E00E94540580E093E01F
:101900000E9454058DE993E00E9450056CE271E05D
:1019100080E090E09DCF86E191E090939E038093DC
:101920009D038091F8029091F9028D59934071F4D2
:10193000E091B003F091B10390818091B203809562
:10194000892380831092F9021092F802089550586A
:10195000BB27AA270E94BF0C0C94100E0E94020EF7
:1019600038F00E94090E20F039F49F3F19F426F454
:101970000C94FF0D0EF4E095E7FB0C94F90DE92FA4
:101980000E94210E58F3BA17620773078407950760
:1019900020F079F4A6F50C94430E0EF4E0950B2E8E
:1019A000BA2FA02D0B01B90190010C01CA01A001B1
:1019B0001124FF27591B99F0593F50F4503E68F10C
:1019C0001A16F040A22F232F342F4427585FF3CF4D
:1019D000469537952795A795F0405395C9F77EF41E
:1019E0001F16BA0B620B730B840BBAF09150A1F067
:1019F000FF0FBB1F661F771F881FC2F70EC0BA0FED
:101A0000621F731F841F48F4879577956795B79574
:101A1000F7959E3F08F0B0CF9395880F08F099276F
:101A2000EE0F9795879508950E94280D0C94100E3F
:101A30000E94090E58F00E94020E40F029F45F3F08
:101A400029F00C94F90D51110C94440E0C94FF0DD7
:101A50000E94210E68F39923B1F3552391F3951B4E
:101A6000550BBB27AA2762177307840738F09F5FBF
:101A70005F4F220F331F441FAA1FA9F335D00E2E2C
:101A80003AF0E0E832D091505040E695001CCAF799
:101A90002BD0FE2F29D0660F771F881FBB1F26175C
:101AA00037074807AB07B0E809F0BB0B802DBF0133
:101AB000FF2793585F4F3AF09E3F510578F00C9402
:101AC000F90D0C94440E5F3FE4F3983ED4F38695F1
:101AD00077956795B795F7959F5FC9F7880F911D23
:101AE0009695879597F90895E1E0660F771F881F0F
:101AF000BB1F621773078407BA0720F0621B730BC2
:101B0000840BBA0BEE1F88F7E09508950E948D0DA7
:101B10006894B1110C94440E08950E94290E88F027
:101B20009F5798F0B92F9927B751B0F0E1F0660FA1
:101B3000771F881F991F1AF0BA95C9F714C0B130E2
:101B400091F00E94430EB1E008950C94430E672F6C
:101B5000782F8827B85F39F0B93FCCF38695779511
:101B60006795B395D9F73EF49095809570956195FA
:101B70007F4F8F4F9F4F0895E89409C097FB3EF425
:101B800090958095709561957F4F8F4F9F4F9923CA
:101B9000A9F0F92F96E9BB279395F6958795779548
:101BA0006795B795F111F8CFFAF4BB0F11F460FF08
:101BB0001BC06F5F7F4F8F4F9F4F16C0882311F060
:101BC00096E911C0772321F09EE8872F762F05C074
:101BD000662371F096E8862F70E060E02AF09A950F
:101BE000660F771F881FDAF7880F9695879597F904
:101BF000089597F99F6780E870E060E008959FEF8F
:101C000080EC089500240A94161617061806090693
:101C1000089500240A941216130614060506089562
:101C2000092E0394000C11F4882352F0BB0F40F4EA
:101C3000BF2B11F460FF04C06F5F7F4F8F4F9F4F2A
:101C4000089557FD9058440F551F59F05F3F71F0AC
:101C50004795880F97FB991F61F09F3F79F0879513
:101C60000895121613061406551FF2CF4695F1DF9C
:101C700008C0161617061806991FF1CF869571052C
:101C8000610508940895E894BB2766277727CB0160
:101C900097F908950E945D0E0C94100E0E94020E9A
:101CA00038F00E94090E20F0952311F00C94F90DE4
:101CB0000C94FF0D11240C94440E0E94210E70F31D
:101CC000959FC1F3950F50E0551F629FF001729FE1
:101CD000BB27F00DB11D639FAA27F00DB11DAA1FF0
:101CE000649F6627B00DA11D661F829F2227B00D3D
:101CF000A11D621F739FB00DA11D621F839FA00DC8
:101D0000611D221F749F3327A00D611D231F849F17
:101D1000600D211D822F762F6A2F11249F5750406E
:101D20009AF0F1F088234AF0EE0FFF1FBB1F661FE9
:101D3000771F881F91505040A9F79E3F510580F0B2
:101D40000C94F90D0C94440E5F3FE4F3983ED4F3E9
:101D5000869577956795B795F795E7959F5FC1F756
:101D6000FE2B880F911D9695879597F9089597FBFF
:101D7000072E16F4009407D077FD09D00E94ED0ECF
:101D800007FC05D03EF4909581959F4F089570957E
:101D900061957F4F0895A1E21A2EAA1BBB1BFD017E
:101DA0000DC0AA1FBB1FEE1FFF1FA217B307E4073A
:101DB000F50720F0A21BB30BE40BF50B661F771F92
:101DC000881F991F1A9469F7609570958095909572
:101DD0009B01AC01BD01CF010895AA1BBB1B51E1C2
:101DE00007C0AA1FBB1FA617B70710F0A61BB70B8B
:101DF000881F991F5A95A9F780959095BC01CD0130
:101E00000895EE0FFF1F0590F491E02D099410E066
:101E1000C2E6D0E004C0FE010E94010F2196C33645
:081E2000D107C9F7F894FFCFC8
:101E2800000000002D018D00BA007A01EB00C90006
:101E3800DD00000000009D028D0083039C02F90272
:101E48001103840200000000D9048D0083033203CB
:101E58000D0A002052454D4F5445205452414E53CF
:101E6800464F524D4552204D4F4E49544F52494EC0
:101E7800470050524F4A45435420574F524B005247
:101E8800454D4F5445005452414E53464F524D45CF
:101E9800520054656D70657261747572653A0043DD
:101EA800004F696C204C6576656C3A00434D0045DF
:101EB800617274682043757272656E743A004100ED
:101EC800484947482054454D50455241545552457C
:101ED8000041542B434D47463D310D004154202BC2
:101EE80020434D4753203D20222B3233333535389C
:101EF800323534303236220048494748205452415E
:101F08004E53464F524D45522054454D504552412F
:101F180054555245004F494C2054414E4B2046558C
:101F28004C4C004154202B20434D4753203D202248
:101F38002B32333335353832343530323622004F90
:101F4800494C204C4556454C204C4F57004C4F5758
:0C1F5800204F494C204C4556454C0000E1
:00000001FF
